:080000000C942A000C9400008E
:100008000C9400000C9400000C9400000C94000068
:100018000C9400000C9400000C9400000C94000058
:100028000C9400000C9400000C9400000C94000048
:100038000C9400000C9400000C9400000C94000038
:100048000C9400000C9400000C940000F894EE2727
:10005800ECBBF1E0FBBFEBBFE5BF8DE0A2E0BB2747
:10006800ED938A95E9F780E094E0A0E6ED93019797
:10007800E9F7EFE5EDBFE4E0EEBFC0E6D1E00C94B0
:10008800450004EF11E0E4E0EABBEFEFEBBBC899F1
:1000980009C00739E0E01E071CF00456104002C0F2
:1000A80006E910E0C99909C00438E3E01E071CF40A
:1000B8000C591F4F02C004E813E0DA9B02C0DA981B
:1000C80001C0DA9AD80102D0E2CFFFCF109639F0FA
:1000D800A89580ED97E00197F1F71197C9F7089572
:00000001FF
